:020000040800F2
:10000000500400209D010008870C0008F30B000835
:10001000850C0008E5010008A91000080000000098
:10002000000000000000000000000000AB0C000811
:10003000E701000800000000A90C0008AD0C000852
:10004000B7010008B7010008B7010008B7010008B0
:10005000B7010008B7010008B7010008B7010008A0
:10006000B7010008B7010008B7010008B701000890
:10007000B7010008B7010008B7010008B701000880
:10008000B7010008B7010008B7010008B701000870
:10009000B7010008B7010008B7010008B701000860
:1000A000B7010008B7010008B7010008B701000850
:1000B000B7010008B7010008B7010008B701000840
:1000C000B7010008B7010008B7010008B701000830
:1000D000B7010008B7010008B7010008B701000820
:1000E000B7010008B7010008B7010008B701000810
:1000F000B7010008B7010008B7010008B701000800
:10010000B7010008B7010008B7010008B7010008EF
:10011000B7010008B7010008B7010008B7010008DF
:10012000B7010008B7010008B7010008B7010008CF
:10013000B7010008B7010008B7010008B7010008BF
:10014000B7010008B7010008B7010008B7010008AF
:10015000B7010008B7010008B7010008B70100089F
:10016000B7010008B7010008B7010008B70100088F
:10017000B7010008B7010008B7010008000000003F
:10018000B7010008B7010008DFF80CD000F018F83C
:1001900000480047C9100008500400200648804766
:1001A00006480047FEE7FEE7FEE7FEE7FEE7FEE75C
:1001B000FEE7FEE7FEE7FEE7450D000889010008BF
:1001C000064C074D06E0E06840F0010394E80700A4
:1001D00098471034AC42F6D3FFF7DAFF401100081D
:1001E00060110008FEE7704731B500F0EBF80446F7
:1001F00000F0E8F80099001B8842F9D338BD0000F0
:100200002DE9F84FDFF87CB100224FF001084FF0E4
:10021000030A4FF00F090BF1040E00BF0B6808FA38
:1002200002F42340A3426ED14D68022D01D0122D5D
:100230000ED1D50800EB850CDCF820505607F70EE0
:1002400009FA07F6B5430E69BE402E43CCF820608C
:10025000066855000F790AFA05FC07F0030726EA3D
:100260000C06AF40374307604E68012E05D0022EC2
:1002700003D0112E01D0122E0ED18668CF6826EA47
:100280000C06AF40374387604668A6430C79C4F339
:100290000014944034434460C6688C6826EA0C0617
:1002A000AC403443C4604C68E40065D5364C2568E6
:1002B00045F480452560246822F0030504F4804459
:1002C0000094324C2E19D6F8084895072F0F09FADA
:1002D00007F5AC432E4DA84201D1002524E02D4D59
:1002E000A84201D101251FE02B4DA84201D10225D2
:1002F0001AE02A4DA84201D1032515E0284DA84255
:1003000002D1042510E037E0264DA84201D1052591
:100310000AE0254DA84201D1062505E0234DA8425B
:1003200001D1072500E00825BD402543C6F808583F
:10033000DBF800405D464E689C43F60300D51C4345
:100340002C60DEF8004075464E689C43B60300D52D
:100350001C432C600B4D08352C684E689C43F602FC
:1003600000D51C432C60074D0C352C684E689C430F
:10037000B60200D51C432C60521C102AFFF44EAF6D
:10038000BDE8F88F003C0140443802400030014095
:10039000000002400004024000080240000C02403D
:1003A000001002400014024000180240001C0240ED
:1003B00042694A40426170470AB18161704709044D
:1003C000FBE70000014800687047000004000020BF
:1003D00002480168491C01607047000004000020C9
:1003E0000B4810B5016841F400710160016841F4E7
:1003F00080610160016841F480710160032000F0B8
:1004000069F8002000F006F800F018F8002010BD90
:10041000003C024010B5044607484FF47A7100686A
:10042000B0FBF1F000F013FB00222146501E00F05B
:1004300031F8002010BD00000800002010B5032096
:1004400000F048F8002211466FF00B0000F022F88F
:10045000002211466FF00A0000F01CF8002211463D
:100460006FF0090000F016F800221146501F00F04E
:1004700011F800221146101F00F00CF8002211465E
:10048000901E00F007F80022BDE810401146501EF3
:10049000AFF30080F0B40E4B1B680C46C3F302238D
:1004A000C3F10705042D00D90425191D072901D220
:1004B000002300E0DB1E012606FA05F1491E21405B
:1004C00099409E40761E16403143F0BC00F0DCBBE4
:1004D0000CED00E0064900F0070208684FF6FF0344
:1004E000184040EA0220034A1043086070470000A9
:1004F0000CED00E00000FA052DE9F047DFF864910B
:1005000005460F46D9F8000000F00F01F8B280460A
:10051000B94208D2014689F80010D9F8000000F06D
:100520000F00B84274D128784F4C800705D5206859
:10053000A96820F0F000084320602878C00759D04F
:1005400049496868083901281AD002281BD00328B5
:1005500019D00968890700295ADA216821F00301B6
:1005600001432160FFF72EFF6968064641F288309B
:10057000012911D002291DD00329824627D035E058
:1005800009688903E7E709688901E4E7FFF71AFFCB
:10059000811B514501D926E082462068C0F38100C5
:1005A0000128F3D126E000BFFFF70CFF811B514566
:1005B00001D918E082462068C0F381000228F3D1F7
:1005C00018E000BFFFF7FEFE811B51450BD82068E5
:1005D000C0F381000328F5D10CE000BFFFF7F2FE65
:1005E000811B514502D90320BDE8F087206810F037
:1005F0000C0FF3D1D9F80010484601F00F01B942B1
:1006000008D980F80080006800F00F00B84201D0DF
:100610000120E9E72878400705D52068E96820F43B
:10062000E050084320602878000706D52068296933
:1006300020F4604040EAC100206000F051F82168D9
:10064000F02292FAA2F201F0F001B2FA82F2D14065
:10065000064A515CC840064908600020FFF7DAFEF0
:100660000020C1E7003C0240083802403011000879
:1006700008000020014800687047000008000020C2
:1006800008480949006809684FF4E05292FAA2F25A
:1006900001F4E051B2FA82F2D140044A515CC84000
:1006A00070470000080000200838024030110008A0
:1006B00008480949006809684FF4604292FAA2F2BA
:1006C00001F46041B2FA82F2D140044A515CC84060
:1006D0007047000008000020083802403011000870
:1006E00030B51948006810F00C01184812D04410B9
:1006F00004290ED008290DD11349091F0A6802F0F8
:100700003F030A68550247F6C07204D5B4FBF3F004
:1007100003E0204630BDB0FBF3F00B6809681340DE
:1007200092FAA2F2B2FA82F2D34058434FF4403226
:1007300092FAA2F201F44031B2FA82F2D140491C9D
:100740004900B0FBF1F030BD083802400024F4004D
:100750002DE9F84F0446DFF8CC820078A8F1040BAD
:10076000C007ABF1040537D0D8F800104046C1F3FC
:100770008101012908D00068C0F3810002280AD154
:10078000DBF80000400206D52868800324D56068A5
:10079000002878D020E0A3492079891F087060687C
:1007A00068B1FFF70FFE064605E000BFFFF70AFE3F
:1007B000801B642868D828688003F7D50CE0FFF711
:1007C00001FE064605E000BFFFF7FCFD801B642824
:1007D000F0D828688003F7D42078934E80074FF034
:1007E000010A4FF0000742D5D8F80010404611F03A
:1007F0000C0F08D00068C0F3810002280AD1DBF892
:100800000000400206D42868800714D5E06801285B
:1008100039D110E0E068D8B1C6F800A0FFF7D2FDEA
:10082000814605E0FFF7CEFDA0EB09000228C1D804
:1008300028688007F6D52868F82292FAA2F2216982
:10084000B2FA82F220F0F8009140084328600EE0EE
:100850003760FFF7B7FD814606E000BFFFF7B2FD46
:10086000A0EB090002280FD828688007F6D420786A
:10087000000728D56D486169A1B1C0F800A0FFF755
:10088000A1FD814608E0CAE079E000BFFFF79AFDCC
:10089000A0EB0900022872D862486C30006880071B
:1008A000F4D510E00760FFF78DFD814606E000BF3C
:1008B000FFF788FDA0EB0900022860D859486C308A
:1008C00000688007F4D42078400749D5554838306F
:1008D000016841F080510160006800F08050009094
:1008E0005348016841F480710160FFF76BFD814658
:1008F00006E000BFFFF766FDA0EB090002283ED826
:100900004B480068C005F5D5DFF81891207A09F149
:10091000680989F80000A06888B1FFF753FD0090CE
:1009200008E000BFFFF74EFD0099411A41F2883000
:1009300081426CD8D9F800008007F3D510E0FFF7AA
:1009400041FD009008E000BFFFF73CFD0099411A0F
:1009500041F2883081425AD8D9F800008007F3D498
:10096000A069E0B3D8F80010C1F38101022956D084
:100970000228376604D0FFF725FD04464AE046E02A
:10098000FFF720FD074604E0FFF71CFDC01B02280F
:100990003DD828688001F7D4D4E90701084347F619
:1009A000C07292FAA2F2616AB2FA82F29140A26A2D
:1009B0004FF0FF3303EB52024FF4403393FAA3F3AB
:1009C000B3FA83F39A40114308434FF0706292FAEE
:1009D000A2F2E16AB2FA82F29140084300E01CE020
:1009E000CBF80000C6F860A0FFF7ECFC044604E07A
:1009F000FFF7E8FC001B022809D828688001F7D51A
:100A00000BE000BFFFF7DEFC001B022802D9032029
:100A1000BDE8F88F28688001F4D40020F8E70120B1
:100A2000F6E700000838024000004742800E4742C7
:100A3000007000404FF0E0210428086903D020F046
:100A400004000861704740F00400FAE7704710B5F1
:100A5000401EB0F1807F01D3012010BD4FF0E02493
:100A600060610F21601700F00FF90020A0610720DE
:100A70002061002010BD10B5FFF7E8FF10BD70B574
:100A8000040004D094F83900002510B106E00120DC
:100A900070BD84F83850204600F022F8242084F8F5
:100AA00039002068C16821F40051C160204600F07F
:100AB00073F92068016921F490410161206841695E
:100AC00021F02A0141612068C16841F40051C160F0
:100AD000E563202084F8390084F83A00002070BDD6
:100AE000F0B50068104987B088421BD10F480168F3
:100AF00041F0100101600068022400F01000059030
:100B00004FF480600125032607278DE8F100694630
:100B10000748FFF775FB40208DE8F100694605485E
:100B2000FFF76EFB07B0F0BD0010014044380240F3
:100B300000000240000402402DE9F843044690F80A
:100B400039001E4617460D46202850D135B32FB325
:100B500094F8380001284AD0012084F838004FF07A
:100B60000008C4F83C80212084F83900FFF72AFCF3
:100B7000A784E78481464FF48057E08C4B46401EA3
:100B8000E084A0684FF00002B8424FF08001204698
:100B9000009611D100F056FA00BB02E00120BDE83A
:100BA000F8832888C0F3080120684160206908B1F3
:100BB0006D1C08E0AD1C06E000F044FA70B9216835
:100BC00015F8010B4860E08C0028D6D14B46002276
:100BD00040212046009600F035FA08B10320DEE7F8
:100BE000202084F8390084F838800020D7E70220DC
:100BF000D5E7FEE7F0B5214887B00024016841F051
:100C000080010160016801F080010591016841F0F7
:100C100008010160016801F008010591016841F0D7
:100C200001010160016801F001010591016841F0D5
:100C3000020101600068012500F0020005904FF4F8
:100C4000805000900220CDE901050D4F03900490E3
:100C500069463846FFF7D4FA4FF460460096CDE96E
:100C60000154694638460394FFF7CAFA0022314618
:100C70003846FFF7A1FB07B0F0BD00003038024056
:100C8000000C0240FEE770470907090E002806DA4B
:100C900000F00F0000F1E02080F8141D704700F113
:100CA000E02080F8001470477047704710B5FFF7D8
:100CB0008FFBBDE81040FFF7DEBE000010B51F48F7
:100CC00092B00024016841F080510160006800F09A
:100CD000805011901A48016841F480410160006819
:100CE000069400F4804011900220009001200390AF
:100CF000102004906846FFF72BFD00B1FEE70F209F
:100D0000CDE90C040E940F9400210CA81094FFF769
:100D1000F3FB00B1FEE7FFF7ADFC4FF47A71B0FBD7
:100D2000F1F0FFF794FE0420FFF784FE0022114645
:100D3000501EFFF7AFFB12B010BD0000403802405C
:100D4000007000401048016841F4700101600F48D4
:100D5000016841F0010101600C4A00210832116074
:100D600002680B4B1A400260031D0A4A1A600268AF
:100D700022F48022026005480C30016002495806C6
:100D8000803908607047000088ED00E000380240BC
:100D9000FFFFF6FE103000242DE9F0410446006804
:100DA000016921F44052E168114301612168C8687A
:100DB00049F20C6290432369A268E5691A436369AA
:100DC0002B431A430243CA602168486920F44072E9
:100DD000A06910434861E1696425B1F5004F974867
:100DE000974A21684FF032083FD0914201D08142AA
:100DF0007CD1FFF75DFC00EBC00101EB00106168E6
:100E00008900B0FBF1F6FFF753FC00EBC00101EBEA
:100E1000001061688900B0FBF1F0B0FBF5F06FF0F5
:100E20001801484306EB800108EB0110B0FBF5F018
:100E300000F0F006FFF73CFC00EBC00101EB0010F6
:100E400061688900B0FBF1F0B0FBF5F006EB00162D
:100E5000FFF72EFC00EBC00101EB00106168890078
:100E6000B0FBF1F7FFF724FCD2E0914201D08142C0
:100E70003DD1FFF71DFC00EBC00101EB00106168E4
:100E80004900B0FBF1F0B0FBF5F00601FFF710FCF4
:100E900000EBC00101EB001061684900B0FBF1F705
:100EA000FFF706FC00EBC00101EB00106168490090
:100EB000B0FBF1F0B0FBF5F06FF01801484307EB21
:100EC000800108EBC100B0FBF5F000F0F80006EB84
:100ED0004006FFF7EDFB00EBC00101EB001061687D
:100EE0004900B0FBF1F7FFF7E3FB3CE055E0FFF70B
:100EF000C7FB00EBC00101EB001061684900B0FBCB
:100F0000F1F0B0FBF5F00601FFF7BAFB00EBC00112
:100F100001EB001061684900B0FBF1F7FFF7B0FB8F
:100F200000EBC00101EB001061684900B0FBF1F07B
:100F3000B0FBF5F06FF01801484307EB800108EBB8
:100F4000C100B0FBF5F000F0F80006EB4006FFF73B
:100F500097FB00EBC00101EB001061684900B0FB9A
:100F6000F1F7FFF78DFB00EBC00101EB00106168AA
:100F70004900B0FBF1F0B0FBF5F06FF01801484309
:100F800007EB800108EBC100B0FBF5F000F00700B3
:100F9000216830448860BDE8F081FFF771FB00EB09
:100FA000C00101EB001061688900B0FBF1F6FFF7AA
:100FB00067FB00EBC00101EB001061688900B0FB2A
:100FC000F1F0B0FBF5F06FF01801484306EB80013B
:100FD00008EB0110B0FBF5F000F0F006FFF750FB56
:100FE00000EBC00101EB001061688900B0FBF1F07B
:100FF000B0FBF5F006EB0016FFF742FB00EBC0017B
:1010000001EB001061688900B0FBF1F7FFF738FBD6
:1010100000EBC00101EB001061688900B0FBF1F04A
:10102000B0FBF5F06FF01801484307EB800108EBC7
:101030000110B0FBF5F000F00F00A9E7001401402B
:10104000001001402DE9F041984617460E4604462F
:10105000069D1DE0681C1BD02DB1FFF7B3F9A0EB76
:101060000800A84214D92068C16821F4D071C16079
:101070002068416921F001014161202084F8390094
:1010800084F83A00002084F838000320BDE8F0819D
:101090002068006836EA000004D00020B842D9D0A9
:1010A0000020F3E70120F9E7FEE702E008C8121F7D
:1010B00008C1002AFAD170477047002001E001C141
:1010C000121F002AFBD17047FFF78AF9FFF7F6FDE0
:1010D000FFF790FD134812490C2201604FF416519E
:1010E000416000218160C160C0E904128161C16179
:1010F000FFF7C5FC00B1FEE70B4D4FF400444FF67F
:10110000FF7621462846FFF753F933460122074967
:101110000448FFF711FDFA20FFF766F8F1E7000039
:10112000001001400C000020000C024000000020D4
:10113000000000000102030401020304060708097D
:1011400060110008000000200C000000AA10000838
:101150006C1100080C00002044040000BA100008C4
:0C11600055000000000000000024F40016
:040000050800018965
:00000001FF
